:020000040000FA
:0400000085EF0DF08B
:10060000003F065B4F666D7D077F6F777C395E79B3
:10061000714573636F6C686120646F200056656E6E
:100620006365646F72004272616E63617300554E60
:10063000494645490050726574617300434845530B
:0F06400053004A6F67616D0054656D706F000065
:10065000000E5B6E000E5A6E000E5D6E000E5C6E3C
:10066000000E5F6E000E5E6E000E616E000E606E1C
:10067000000E576E000E566E000E956E000E966EB2
:10068000000E836E000E966EC30E926E030E936E76
:10069000010E946ED8EC0CF00C0EB5EC0DF0030EC0
:1006A000A6EC0BF0000E086E010E076E6AEC0CF063
:1006B000010EB5EC0DF0080EE8EC0BF0000E086E24
:1006C000010E076E6AEC0CF0010EB5EC0DF0850E14
:1006D000B5EC0DF03C0E086E060E096E5DEC0DF0EB
:1006E000C50EB5EC0DF02E0E086E060E096E5DEC13
:1006F0000DF0000E086E020E076E6AEC0CF0010E93
:10070000B5EC0DF0830EB5EC0DF0110E086E060E73
:10071000096E5DEC0DF0C50EB5EC0DF0480E086EDF
:10072000060E096E5DEC0DF032EC0DF0FBEC0DF0F9
:1007300000EC0EF0000E0F6E5CC009F05DC00AF018
:10074000000E0C6E0A0E0B6E4EEC0BF0095006EC10
:100750000DF0010E0F6E5AC009F05BC00AF0000EDA
:100760000C6E0A0E0B6E4EEC0BF0095006EC0DF001
:10077000020E0F6E60C009F061C00AF0000E0C6E30
:100780000A0E0B6E4EEC0BF0095006EC0DF0030E4A
:100790000F6E5EC009F05FC00AF0000E0C6E0A0E0C
:1007A0000B6E4EEC0BF0095006EC0DF0000E556E82
:1007B000000E546E55BEE6EF03F0555009E1640E8D
:1007C000545CD8A0E6EF03F0E8EF03F0EAEF03F0A3
:1007D000EEEF03F0544A552ADAEF03F044EC0AF046
:1007E00087EC09F0F6EC0DF04C50011809E14D5082
:1007F0000218D8B4FEEF03F000EF04F09AEF03F014
:10080000F6EC0DF001C04CF002C04DF0F6EC0DF02E
:1008100001A60DEF04F00FEF04F023EF04F05C4AA3
:100820005D2A5DBE1DEF04F05D5009E10A0E5C5CBF
:10083000D8A01DEF04F01FEF04F023EF04F0000E2A
:100840005D6E000E5C6EF6EC0DF001AE2AEF04F06A
:100850002CEF04F040EF04F05A4A5B2A5BBE3AEFFB
:1008600004F05B5009E10A0E5A5CD8A03AEF04F09C
:100870003CEF04F040EF04F0000E5B6E000E5A6E89
:10088000F6EC0DF002A647EF04F049EF04F05DEF3F
:1008900004F0604A612A61BE57EF04F0615009E13B
:1008A0000A0E605CD8A057EF04F059EF04F05DEF3A
:1008B00004F0000E616E000E606EF6EC0DF001A407
:1008C00064EF04F066EF04F07AEF04F05E4A5F2A0A
:1008D0005FBE74EF04F05F5009E10A0E5E5CD8A0C1
:1008E00074EF04F076EF04F07AEF04F0000E5F6E20
:1008F000000E5E6EF6EC0DF001A081EF04F083EFC8
:1009000004F09AEF03F05CC001F05DC002F0030E4A
:10091000046EE80E036ECAEC0DF001C04AF002C08E
:100920004BF05AC001F05BC002F0000E046E640E82
:10093000036ECAEC0DF001504A2602504B2260C0F3
:1009400001F061C002F0000E046E0A0E036ECAECE4
:100950000DF001504A2602504B225E504A24636E2D
:100960005F504B20646E5CC001F05DC002F0030E6E
:10097000046EE80E036ECAEC0DF001C04AF002C02E
:100980004BF05AC001F05BC002F0000E046E640E22
:10099000036ECAEC0DF001504A2602504B2260C093
:1009A00001F061C002F0000E046E0A0E036ECAEC84
:1009B0000DF001504A2602504B225E504A24656ECB
:1009C0005F504B20666E00EC0EF0000E596E010E6B
:1009D000586E010EB5EC0DF0800EB5EC0DF0260E44
:1009E000086E060E096E5DEC0DF0C00EB5EC0DF054
:1009F000420E086E060E096E5DEC0DF0090EE8EC75
:100A00000BF0130E026E880E016EDDEC0DF0580433
:100A10005910D8A40EEF05F010EF05F08FEF05F098
:100A2000504A512A515009E1C80E505CD8A01BEF22
:100A300005F01DEF05F08FEF05F06306D8A0640602
:100A400064BE2DEF05F0645006E16304D8B02BEFCF
:100A500005F02DEF05F031EF05F0000E576E010E99
:100A6000566E000E0F6E030E046EE80E036E63C02A
:100A700001F064C002F0ECEC0AF001C009F002C021
:100A80000AF0000E0C6E0A0E0B6E4EEC0BF00950C5
:100A900006EC0DF0010E0F6E000E046E640E036E78
:100AA00063C001F064C002F0ECEC0AF001C009F090
:100AB00002C00AF0000E0C6E0A0E0B6E4EEC0BF02C
:100AC000095006EC0DF0020E0F6E000E046E0A0EB9
:100AD000036E63C001F064C002F0ECEC0AF001C0E8
:100AE00009F002C00AF0000E0C6E0A0E0B6E4EECFE
:100AF0000BF0095006EC0DF0030E0F6E63C009F009
:100B000064C00AF0000E0C6E0A0E0B6E4EEC0BF079
:100B1000095006EC0DF0000E516E000E506E020EE4
:100B200058185910D8A497EF05F099EF05F018EF71
:100B300006F0524A532A535009E1C80E525CD8A01D
:100B4000A4EF05F0A6EF05F018EF06F06506D8A0B3
:100B5000660666BEB6EF05F0665006E16504D8B0DD
:100B6000B4EF05F0B6EF05F0BAEF05F0000E576EE2
:100B7000020E566E000E0F6E030E046EE80E036E2C
:100B800065C001F066C002F0ECEC0AF001C009F0AB
:100B900002C00AF0000E0C6E0A0E0B6E4EEC0BF04B
:100BA000095006EC0DF0010E0F6E000E046E640E7F
:100BB000036E65C001F066C002F0ECEC0AF001C003
:100BC00009F002C00AF0000E0C6E0A0E0B6E4EEC1D
:100BD0000BF0095006EC0DF0020E0F6E000E046EC5
:100BE0000A0E036E65C001F066C002F0ECEC0AF07C
:100BF00001C009F002C00AF0000E0C6E0A0E0B6E66
:100C00004EEC0BF0095006EC0DF0030E0F6E65C0B4
:100C100009F066C00AF0000E0C6E0A0E0B6E4EEC68
:100C20000BF0095006EC0DF0000E536E000E526EE4
:100C300087EC09F0F6EC0DF04E50011809E14F5029
:100C40000218D8B426EF06F028EF06F078EF06F089
:100C5000F6EC0DF001C04EF002C04FF0F6EC0DF0D6
:100C600001A635EF06F037EF06F053EF06F0010E60
:100C7000B5EC0DF0800EB5EC0DF0260E086E060EEC
:100C8000096E5DEC0DF0C00EB5EC0DF0420E086E75
:100C9000060E096E5DEC0DF0090EE8EC0BF0000E8F
:100CA000596E010E586EF6EC0DF001AE5AEF06F0DB
:100CB0005CEF06F078EF06F0010EB5EC0DF0800E5B
:100CC000B5EC0DF0350E086E060E096E5DEC0DF0FC
:100CD000C00EB5EC0DF0420E086E060E096E5DEC0E
:100CE0000DF0090EA6EC0BF0000E596E020E586EB8
:100CF00056045710D8A47FEF06F081EF06F0D4EF2A
:100D000006F0000E576E000E566E000E596E000E65
:100D1000586E010EB5EC0DF0810EB5EC0DF01D0E08
:100D2000086E060E096E5DEC0DF0C20EB5EC0DF00E
:100D3000350E086E060E096E5DEC0DF00A0EA6EC7F
:100D40000BF0000E626E020E6264A9EF06F0ABEFCC
:100D500006F0ADEF06F0D4EF06F0010E676E6750B7
:100D6000D8A4B5EF06F0B7EF06F0B9EF06F0D0EF74
:100D700006F0948267C081FF67C083FF000E026E99
:100D8000640E016EA6EC0CF06750020DF3CF67F015
:100D90006750D8A4CEEF06F0D0EF06F0B9EF06F01A
:100DA0009492622AA3EF06F0020E56185710D8A4A8
:100DB000DCEF06F0DEEF06F031EF07F0000E576EC5
:100DC000000E566E000E596E000E586E010EB5ECF8
:100DD0000DF0810EB5EC0DF01D0E086E060E096EBD
:100DE0005DEC0DF0C20EB5EC0DF0260E086E060E91
:100DF000096E5DEC0DF00A0EE8EC0BF0000E626E71
:100E0000020E626406EF07F008EF07F00AEF07F042
:100E100031EF07F0010E676E6750D8A412EF07F0AC
:100E200014EF07F016EF07F02DEF07F0948267C07C
:100E300081FF67C083FF000E026E640E016EA6EC98
:100E40000CF06750020DF3CF67F06750D8A42BEF7A
:100E500007F02DEF07F016EF07F09492622A00EFEB
:100E600007F044EC0AF0EEEC0DF001EF05F000EFB6
:100E700000F002BE47EF07F0025007E1080E015CE8
:100E8000D8B045EF07F047EF07F071EF07F00350D8
:100E90000410D8B44EEF07F050EF07F060EF07F002
:100EA00001C005F0010E066E052A59EF07F0D89033
:100EB0000636052E57EF07F0065080125FEF08F058
:100EC00001C005F0010E066E052A69EF07F0D89003
:100ED0000636052E67EF07F00650FF0A80165FEF13
:100EE00008F002BE7FEF07F0025007E1100E015C30
:100EF000D8B07DEF07F07FEF07F0ADEF07F0F80E09
:100F00000126FF0E022203500410D8B48AEF07F026
:100F10008CEF07F09CEF07F001C005F0010E066EA4
:100F2000052A95EF07F0D8900636052E93EF07F0C7
:100F3000065081125FEF08F001C005F0010E066E49
:100F4000052AA5EF07F0D8900636052EA3EF07F087
:100F50000650FF0A81165FEF08F002BEBBEF07F0F4
:100F6000025007E1180E015CD8B0B9EF07F0BBEFF3
:100F700007F0E9EF07F0F00E0126FF0E0222035002
:100F80000410D8B4C6EF07F0C8EF07F0D8EF07F0A9
:100F900001C005F0010E066E052AD1EF07F0D890CA
:100FA0000636052ECFEF07F0065082125FEF08F0ED
:100FB00001C005F0010E066E052AE1EF07F0D8909A
:100FC0000636052EDFEF07F00650FF0A82165FEFA8
:100FD00008F002BEF7EF07F0025007E1200E015CB7
:100FE000D8B0F5EF07F0F7EF07F025EF08F0E80EBF
:100FF0000126FF0E022203500410D8B402EF08F0BD
:1010000004EF08F014EF08F001C005F0010E066EC1
:10101000052A0DEF08F0D8900636052E0BEF08F0E4
:10102000065083125FEF08F001C005F0010E066E56
:10103000052A1DEF08F0D8900636052E1BEF08F0A4
:101040000650FF0A83165FEF08F002BE33EF08F088
:10105000025007E1280E015CD8B031EF08F033EF01
:1010600008F05FEF08F0E00E0126FF0E02220350A9
:101070000410D8B43EEF08F040EF08F050EF08F04D
:1010800001C005F0010E066E052A49EF08F0D89060
:101090000636052E47EF08F0065084125FEF08F081
:1010A00001C005F0010E066E052A59EF08F0D89030
:1010B0000636052E57EF08F00650FF0A8416120078
:1010C00002BE6EEF08F0025007E1080E015CD8B0D6
:1010D0006CEF08F06EEF08F098EF08F00350041082
:1010E000D8B475EF08F077EF08F087EF08F001C08B
:1010F00005F0010E066E052A80EF08F0D89006363E
:10110000052E7EEF08F00650921286EF09F001C01E
:1011100005F0010E066E052A90EF08F0D89006360D
:10112000052E8EEF08F00650FF0A921686EF09F0A2
:1011300002BEA6EF08F0025007E1100E015CD8B025
:10114000A4EF08F0A6EF08F0D4EF08F00350041065
:10115000D8B4ADEF08F0AFEF08F0C1EF08F001C070
:1011600005F0F80E0526010E066E052ABAEF08F006
:10117000D8900636052EB8EF08F00650931286EF89
:1011800009F001C005F0F80E0526010E066E052ACD
:10119000CCEF08F0D8900636052ECAEF08F00650BE
:1011A000FF0A931686EF09F002BEE2EF08F0025044
:1011B00007E1180E015CD8B0E0EF08F0E2EF08F0AC
:1011C00010EF09F003500410D8B4E9EF08F0EBEF8A
:1011D00008F0FDEF08F001C005F0F00E0526010E45
:1011E000066E052AF6EF08F0D8900636052EF4EFC5
:1011F00008F00650941286EF09F001C005F0F00ED9
:101200000526010E066E052A08EF09F0D89006366D
:10121000052E06EF09F00650FF0A941686EF09F036
:1012200002BE1EEF09F0025007E1200E015CD8B0AB
:101230001CEF09F01EEF09F04CEF09F00350041009
:10124000D8B425EF09F027EF09F039EF09F001C014
:1012500005F0E80E0526010E066E052A32EF09F0AC
:10126000D8900636052E30EF09F00650951286EF1D
:1012700009F001C005F0E80E0526010E066E052AEC
:1012800044EF09F0D8900636052E42EF09F00650DB
:10129000FF0A951686EF09F002BE5AEF09F00250D8
:1012A00007E1280E015CD8B058EF09F05AEF09F0B9
:1012B00086EF09F003500410D8B461EF09F063EF32
:1012C00009F075EF09F001C005F0E00E0526010EEA
:1012D000066E052A6EEF09F0D8900636052E6CEFE3
:1012E00009F00650961286EF09F001C005F0E00EF5
:1012F0000526010E066E052A80EF09F0D890063605
:10130000052E7EEF09F00650FF0A9616120083CFD5
:1013100006F00F0E9512000E0A6EF80E93160AC014
:1013200001F0010E026E012A98EF09F0D890023602
:10133000012E96EF09F002509312070E81120AC097
:1013400001F0010E026E012AA8EF09F0D8900236D2
:10135000012EA6EF09F00250FF0A8116000E086E5A
:10136000000E076E074A082A08BEC0EF09F00850B1
:1013700009E10A0E075CD8A0C0EF09F0C2EF09F03E
:10138000B2EF09F0000E096E09C001F0010E026E05
:10139000012ACDEF09F0D8900236012ECBEF09F0EB
:1013A000025083140009D8A4D8EF09F0DAEF09F04D
:1013B000F2EF09F00A50040DF3500924016E010EFA
:1013C000026E000E036E012AE9EF09F0D890023692
:1013D0000336012EE6EF09F002506A1203506B1239
:1013E0000CEF0AF00A50040DF3500924016E010EAF
:1013F000026E000E036E012A01EF0AF0D890023649
:101400000336012EFEEF09F0021C046E031C056E6C
:1014100004506A1605506B16092A030E096413EF6F
:101420000AF015EF0AF0C4EF09F00A2A020E0A6466
:101430001CEF0AF01EEF0AF08DEF09F06A506818F1
:1014400007E16B506918D8A428EF0AF02AEF0AF0D8
:101450002DEF0AF0730633EF0AF00A0E736E6AC0BE
:1014600068F06BC069F07350D8A439EF0AF03BEF15
:101470000AF03FEF0AF068C06CF069C06DF006C07A
:1014800083FF000E956E1200000E956E000E026E28
:10149000020E016E000E046E000E036E39EC07F0B2
:1014A000000E026E030E016E000E046E000E036E3F
:1014B00039EC07F0000E026E040E016E000E046E91
:1014C000000E036E39EC07F0000E026E050E016E81
:1014D000000E046E000E036E39EC07F0000E836EF2
:1014E000CEEF0AF0010E7124F66EF76A060EF722AF
:1014F0000800F5CF83FF000E026E020E016E000E93
:10150000046E010E036E39EC07F0010E726EEBEF04
:101510000AF0010E7024F66EF76A060EF722080034
:10152000F5CF83FF000E026E030E016E000E046EF7
:10153000010E036E39EC07F0020E726EEBEF0AF04B
:10154000010E6F24F66EF76A060EF7220800F5CF3B
:1015500083FF000E026E040E016E000E046E010E7B
:10156000036E39EC07F0030E726EEBEF0AF0010E1A
:101570006E24F66EF76A060EF7220800F5CF83FF99
:10158000000E026E050E016E000E046E010E036E5B
:1015900039EC07F0000E726EEBEF0AF07250076E36
:1015A000086A0850000AD8B4D8EF0AF0CAEF0AF067
:1015B0000750000AD8B472EF0AF0010AD8B489EFD4
:1015C0000AF0030AD8B4A0EF0AF0010AD8B4B7EFC2
:1015D0000AF0CAEF0AF01200000E066E04BEF5EF24
:1015E0000AF0F3EF0AF0FBEF0AF0036C041ED8B028
:1015F000042A010E066E02BE02EF0BF000EF0BF0A4
:1016000008EF0BF0016C021ED8B0022A010E061A78
:10161000000E086E000E076E03500410D8B413EFCE
:101620000BF015EF0BF03DEF0BF0010E056E1DEF0B
:101630000BF0D89003360436052A04AE22EF0BF0E7
:1016400024EF0BF019EF0BF0D89007360836035053
:10165000015C04500258D8A030EF0BF032EF0BF0D1
:1016600037EF0BF00350015E0450025A0780D89008
:1016700004320332052E24EF0BF00650D8B443EFAA
:101680000BF045EF0BF049EF0BF0076C081ED8B0DC
:10169000082A07C001F008C002F01200000E0E6E0A
:1016A0000ABE57EF0BF055EF0BF05DEF0BF0096C36
:1016B0000A1ED8B00A2A010E0E6E0CBE64EF0BF0A3
:1016C00062EF0BF068EF0BF00B6C0C1ED8B00C2A1D
:1016D0000B500C10D8B46FEF0BF071EF0BF095EFCF
:1016E0000BF0010E0D6E79EF0BF0D8900B360C3627
:1016F0000D2A0CAE7EEF0BF080EF0BF075EF0BF0C8
:101700000B50095C0C500A58D8A089EF0BF08BEFF6
:101710000BF08FEF0BF00B50095E0C500A5AD8906B
:101720000C320B320D2E80EF0BF00E50D8B49BEF25
:101730000BF09DEF0BF0A1EF0BF0096C0A1ED8B077
:101740000A2A09C009F00AC00AF01200486E20EE09
:10175000C0F010EE08F03F0EDBCFE3FFE806FCE23E
:10176000400EB5EC0DF0000E496E080E4924D96EFE
:10177000DA6A000EDA22DF50A0EC0DF0492A3F0EA3
:101780004964C5EF0BF0C7EF0BF0B5EF0BF0485015
:10179000800FB5EC0DF0000EA0EC0DF0010EA0ECEA
:1017A0000DF0020EA0EC0DF0030EA0EC0DF0485071
:1017B000C00FB5EC0DF0040EA0EC0DF0050EA0EC82
:1017C0000DF0060EA0EC0DF0070EA0EC0DF01200CF
:1017D000486E20EE80F010EE08F03F0EDBCFE3FF06
:1017E000E806FCE2400EB5EC0DF0000E496E080E66
:1017F0004924D96EDA6A000EDA22DF50A0EC0DF02F
:10180000492A3F0E496407EF0CF009EF0CF0F7EF9F
:101810000BF04850800FB5EC0DF0000EA0EC0DF071
:10182000010EA0EC0DF0020EA0EC0DF0030EA0ECEA
:101830000DF04850C00FB5EC0DF0040EA0EC0DF00B
:10184000050EA0EC0DF0060EA0EC0DF0070EA0ECBE
:101850000DF012000103010F040202061018101E01
:101860000408080C00111A0C0202020400110B06F5
:1018700008080804020202020204081F08080808F7
:101880000804021F020202020204081F08080808D6
:101890000804021F0103010F070303071018101E9D
:1018A0001C18181C00111B0F0303030700111B1E3B
:1018B0001818181C0303030303070F1F1818181820
:1018C000181C1E1F0303030303070F1F1818181803
:1018D000181C1E1F000E0A6E000E096E90EF0CF011
:1018E000000E0B6E280E0B6478EF0CF07AEF0CF004
:1018F0007CEF0CF08EEF0CF0000E0C6E020E0C6400
:1019000084EF0CF086EF0CF088EF0CF08BEF0CF00E
:101910000C2A7EEF0CF00B2A72EF0CF0094A0A2A0F
:1019200007C001F008C002F0030E046EE80E036E5B
:10193000CAEC0DF00150095C02500A58D8A0A3EF80
:101940000CF0A5EF0CF070EF0CF01200000E046E1E
:10195000000E036ECCEF0CF0000E056E280E056431
:10196000B4EF0CF0B6EF0CF0B8EF0CF0CAEF0CF0DF
:10197000000E066E020E0664C0EF0CF0C2EF0CF013
:10198000C4EF0CF0C7EF0CF0062ABAEF0CF0052AF2
:10199000AEEF0CF0034A042A0150035C02500458D5
:1019A000D8A0D5EF0CF0D7EF0CF0ACEF0CF0120094
:1019B00084928494000E026E140E016EA6EC0CF05C
:1019C0008482380EB5EC0DF0000E026E050E016E2D
:1019D000A6EC0CF0380EB5EC0DF0000E026E010E08
:1019E000016EA6EC0CF0380EB5EC0DF0080EB5EC5F
:1019F0000DF00F0EB5EC0DF0010EB5EC0DF0380E3C
:101A0000B5EC0DF0800EB5EC0DF01200106E0F501D
:101A1000D8A40DEF0DF00FEF0DF011EF0DF010C089
:101A200071F00F04D8A417EF0DF019EF0DF01BEFB4
:101A30000DF010C070F0020E0F18D8A422EF0DF0B8
:101A400024EF0DF026EF0DF010C06FF0030E0F180D
:101A5000D8A42DEF0DF02FEF0DF031EF0DF010C0E9
:101A60006EF01200000E026E020E016E000E046E89
:101A7000000E036E60EC08F0000E026E030E016EA5
:101A8000000E046E000E036E60EC08F0000E026E95
:101A9000040E016E000E046E000E036E60EC08F082
:101AA000000E026E050E016E000E046E000E036E37
:101AB00060EC08F0000E956E1200000E0C6E70EFD8
:101AC0000DF00C5008240A6E000E09200B6E0AC09F
:101AD000F6FF0BC0F7FF0800F550A0EC0DF00C2A44
:101AE0000C5008240A6E000E09200B6E0AC0F6FF87
:101AF0000BC0F7FF0800F5500009D8A482EF0DF0E5
:101B000084EF0DF061EF0DF01200540EF66E180E1A
:101B1000F76E000EF86E00EE80F010EE80F0090017
:101B2000F5CFEEFFE550E150FAE100EE68F00C0E63
:101B3000EE6AE806FDE1000EF86E000128EF03F002
:101B4000076E8482075004EC0EF08484000E026E4F
:101B5000030E016EA6EC0CF08492000E026E030ED2
:101B6000016EA6EC0CF084821200076E848207508E
:101B700004EC0EF08494000E026E030E016EA6ECCF
:101B80000CF08492000E026E030E016EA6EC0CF0B7
:101B90008482120001500302F3CF05F0F4CF06F067
:101BA00001500402F350062602500302F3500626A9
:101BB00005C001F006C002F01200D8900134036E97
:101BC0000234046E031E041E0E0E035E000E045A41
:101BD0000450D76E03C0D6FFF2941200F2A4F3EFC4
:101BE0000DF0F5EF0DF0EEEF0DF012006CC001F00E
:101BF0006DC002F01200070E93160F0E9512120020
:101C0000080ED56ED58E1200016E01C083FF120042
:020000040020DA
:08000000FFFFFFFFFFFFFFFF00
:020000040030CA
:0E000000FF027100FF8380FF0FC00FE00F4072
:00000001FF
